{
    "_format": "hh-sol-artifact-1",
    "contractName": "Sneakerfaces",
    "sourceName": "contracts/Sneakerfaces.sol",
    "abi": [
        {
            "inputs": [],
            "stateMutability": "nonpayable",
            "type": "constructor"
        },
        {
            "anonymous": false,
            "inputs": [
                {
                    "indexed": true,
                    "internalType": "address",
                    "name": "owner",
                    "type": "address"
                },
                {
                    "indexed": true,
                    "internalType": "address",
                    "name": "approved",
                    "type": "address"
                },
                {
                    "indexed": true,
                    "internalType": "uint256",
                    "name": "tokenId",
                    "type": "uint256"
                }
            ],
            "name": "Approval",
            "type": "event"
        },
        {
            "anonymous": false,
            "inputs": [
                {
                    "indexed": true,
                    "internalType": "address",
                    "name": "owner",
                    "type": "address"
                },
                {
                    "indexed": true,
                    "internalType": "address",
                    "name": "operator",
                    "type": "address"
                },
                {
                    "indexed": false,
                    "internalType": "bool",
                    "name": "approved",
                    "type": "bool"
                }
            ],
            "name": "ApprovalForAll",
            "type": "event"
        },
        {
            "anonymous": false,
            "inputs": [
                {
                    "indexed": true,
                    "internalType": "address",
                    "name": "previousOwner",
                    "type": "address"
                },
                {
                    "indexed": true,
                    "internalType": "address",
                    "name": "newOwner",
                    "type": "address"
                }
            ],
            "name": "OwnershipTransferred",
            "type": "event"
        },
        {
            "anonymous": false,
            "inputs": [
                {
                    "indexed": true,
                    "internalType": "address",
                    "name": "from",
                    "type": "address"
                },
                {
                    "indexed": true,
                    "internalType": "address",
                    "name": "to",
                    "type": "address"
                },
                {
                    "indexed": true,
                    "internalType": "uint256",
                    "name": "tokenId",
                    "type": "uint256"
                }
            ],
            "name": "Transfer",
            "type": "event"
        },
        {
            "inputs": [
                {
                    "internalType": "address",
                    "name": "to",
                    "type": "address"
                },
                {
                    "internalType": "uint256",
                    "name": "tokenId",
                    "type": "uint256"
                }
            ],
            "name": "approve",
            "outputs": [],
            "stateMutability": "nonpayable",
            "type": "function"
        },
        {
            "inputs": [
                {
                    "internalType": "address",
                    "name": "owner",
                    "type": "address"
                }
            ],
            "name": "balanceOf",
            "outputs": [
                {
                    "internalType": "uint256",
                    "name": "",
                    "type": "uint256"
                }
            ],
            "stateMutability": "view",
            "type": "function"
        },
        {
            "inputs": [],
            "name": "cost",
            "outputs": [
                {
                    "internalType": "uint256",
                    "name": "",
                    "type": "uint256"
                }
            ],
            "stateMutability": "view",
            "type": "function"
        },
        {
            "inputs": [
                {
                    "internalType": "uint256",
                    "name": "tokenId",
                    "type": "uint256"
                }
            ],
            "name": "getApproved",
            "outputs": [
                {
                    "internalType": "address",
                    "name": "",
                    "type": "address"
                }
            ],
            "stateMutability": "view",
            "type": "function"
        },
        {
            "inputs": [],
            "name": "hiddenMetadataUri",
            "outputs": [
                {
                    "internalType": "string",
                    "name": "",
                    "type": "string"
                }
            ],
            "stateMutability": "view",
            "type": "function"
        },
        {
            "inputs": [
                {
                    "internalType": "address",
                    "name": "owner",
                    "type": "address"
                },
                {
                    "internalType": "address",
                    "name": "operator",
                    "type": "address"
                }
            ],
            "name": "isApprovedForAll",
            "outputs": [
                {
                    "internalType": "bool",
                    "name": "",
                    "type": "bool"
                }
            ],
            "stateMutability": "view",
            "type": "function"
        },
        {
            "inputs": [],
            "name": "maxMintAmountPerTx",
            "outputs": [
                {
                    "internalType": "uint256",
                    "name": "",
                    "type": "uint256"
                }
            ],
            "stateMutability": "view",
            "type": "function"
        },
        {
            "inputs": [],
            "name": "maxSupply",
            "outputs": [
                {
                    "internalType": "uint256",
                    "name": "",
                    "type": "uint256"
                }
            ],
            "stateMutability": "view",
            "type": "function"
        },
        {
            "inputs": [
                {
                    "internalType": "uint256",
                    "name": "_mintAmount",
                    "type": "uint256"
                }
            ],
            "name": "mint",
            "outputs": [],
            "stateMutability": "payable",
            "type": "function"
        },
        {
            "inputs": [
                {
                    "internalType": "uint256",
                    "name": "_mintAmount",
                    "type": "uint256"
                },
                {
                    "internalType": "address",
                    "name": "_receiver",
                    "type": "address"
                }
            ],
            "name": "mintForAddress",
            "outputs": [],
            "stateMutability": "nonpayable",
            "type": "function"
        },
        {
            "inputs": [],
            "name": "name",
            "outputs": [
                {
                    "internalType": "string",
                    "name": "",
                    "type": "string"
                }
            ],
            "stateMutability": "view",
            "type": "function"
        },
        {
            "inputs": [],
            "name": "owner",
            "outputs": [
                {
                    "internalType": "address",
                    "name": "",
                    "type": "address"
                }
            ],
            "stateMutability": "view",
            "type": "function"
        },
        {
            "inputs": [
                {
                    "internalType": "uint256",
                    "name": "tokenId",
                    "type": "uint256"
                }
            ],
            "name": "ownerOf",
            "outputs": [
                {
                    "internalType": "address",
                    "name": "",
                    "type": "address"
                }
            ],
            "stateMutability": "view",
            "type": "function"
        },
        {
            "inputs": [],
            "name": "paused",
            "outputs": [
                {
                    "internalType": "bool",
                    "name": "",
                    "type": "bool"
                }
            ],
            "stateMutability": "view",
            "type": "function"
        },
        {
            "inputs": [],
            "name": "renounceOwnership",
            "outputs": [],
            "stateMutability": "nonpayable",
            "type": "function"
        },
        {
            "inputs": [],
            "name": "revealed",
            "outputs": [
                {
                    "internalType": "bool",
                    "name": "",
                    "type": "bool"
                }
            ],
            "stateMutability": "view",
            "type": "function"
        },
        {
            "inputs": [
                {
                    "internalType": "address",
                    "name": "from",
                    "type": "address"
                },
                {
                    "internalType": "address",
                    "name": "to",
                    "type": "address"
                },
                {
                    "internalType": "uint256",
                    "name": "tokenId",
                    "type": "uint256"
                }
            ],
            "name": "safeTransferFrom",
            "outputs": [],
            "stateMutability": "nonpayable",
            "type": "function"
        },
        {
            "inputs": [
                {
                    "internalType": "address",
                    "name": "from",
                    "type": "address"
                },
                {
                    "internalType": "address",
                    "name": "to",
                    "type": "address"
                },
                {
                    "internalType": "uint256",
                    "name": "tokenId",
                    "type": "uint256"
                },
                {
                    "internalType": "bytes",
                    "name": "_data",
                    "type": "bytes"
                }
            ],
            "name": "safeTransferFrom",
            "outputs": [],
            "stateMutability": "nonpayable",
            "type": "function"
        },
        {
            "inputs": [
                {
                    "internalType": "address",
                    "name": "operator",
                    "type": "address"
                },
                {
                    "internalType": "bool",
                    "name": "approved",
                    "type": "bool"
                }
            ],
            "name": "setApprovalForAll",
            "outputs": [],
            "stateMutability": "nonpayable",
            "type": "function"
        },
        {
            "inputs": [
                {
                    "internalType": "uint256",
                    "name": "_cost",
                    "type": "uint256"
                }
            ],
            "name": "setCost",
            "outputs": [],
            "stateMutability": "nonpayable",
            "type": "function"
        },
        {
            "inputs": [
                {
                    "internalType": "string",
                    "name": "_hiddenMetadataUri",
                    "type": "string"
                }
            ],
            "name": "setHiddenMetadataUri",
            "outputs": [],
            "stateMutability": "nonpayable",
            "type": "function"
        },
        {
            "inputs": [
                {
                    "internalType": "uint256",
                    "name": "_maxMintAmountPerTx",
                    "type": "uint256"
                }
            ],
            "name": "setMaxMintAmountPerTx",
            "outputs": [],
            "stateMutability": "nonpayable",
            "type": "function"
        },
        {
            "inputs": [
                {
                    "internalType": "bool",
                    "name": "_state",
                    "type": "bool"
                }
            ],
            "name": "setPaused",
            "outputs": [],
            "stateMutability": "nonpayable",
            "type": "function"
        },
        {
            "inputs": [
                {
                    "internalType": "bool",
                    "name": "_state",
                    "type": "bool"
                }
            ],
            "name": "setRevealed",
            "outputs": [],
            "stateMutability": "nonpayable",
            "type": "function"
        },
        {
            "inputs": [
                {
                    "internalType": "string",
                    "name": "_uriPrefix",
                    "type": "string"
                }
            ],
            "name": "setUriPrefix",
            "outputs": [],
            "stateMutability": "nonpayable",
            "type": "function"
        },
        {
            "inputs": [
                {
                    "internalType": "string",
                    "name": "_uriSuffix",
                    "type": "string"
                }
            ],
            "name": "setUriSuffix",
            "outputs": [],
            "stateMutability": "nonpayable",
            "type": "function"
        },
        {
            "inputs": [
                {
                    "internalType": "bytes4",
                    "name": "interfaceId",
                    "type": "bytes4"
                }
            ],
            "name": "supportsInterface",
            "outputs": [
                {
                    "internalType": "bool",
                    "name": "",
                    "type": "bool"
                }
            ],
            "stateMutability": "view",
            "type": "function"
        },
        {
            "inputs": [],
            "name": "symbol",
            "outputs": [
                {
                    "internalType": "string",
                    "name": "",
                    "type": "string"
                }
            ],
            "stateMutability": "view",
            "type": "function"
        },
        {
            "inputs": [
                {
                    "internalType": "uint256",
                    "name": "_tokenId",
                    "type": "uint256"
                }
            ],
            "name": "tokenURI",
            "outputs": [
                {
                    "internalType": "string",
                    "name": "",
                    "type": "string"
                }
            ],
            "stateMutability": "view",
            "type": "function"
        },
        {
            "inputs": [],
            "name": "totalSupply",
            "outputs": [
                {
                    "internalType": "uint256",
                    "name": "",
                    "type": "uint256"
                }
            ],
            "stateMutability": "view",
            "type": "function"
        },
        {
            "inputs": [
                {
                    "internalType": "address",
                    "name": "from",
                    "type": "address"
                },
                {
                    "internalType": "address",
                    "name": "to",
                    "type": "address"
                },
                {
                    "internalType": "uint256",
                    "name": "tokenId",
                    "type": "uint256"
                }
            ],
            "name": "transferFrom",
            "outputs": [],
            "stateMutability": "nonpayable",
            "type": "function"
        },
        {
            "inputs": [
                {
                    "internalType": "address",
                    "name": "newOwner",
                    "type": "address"
                }
            ],
            "name": "transferOwnership",
            "outputs": [],
            "stateMutability": "nonpayable",
            "type": "function"
        },
        {
            "inputs": [],
            "name": "uriPrefix",
            "outputs": [
                {
                    "internalType": "string",
                    "name": "",
                    "type": "string"
                }
            ],
            "stateMutability": "view",
            "type": "function"
        },
        {
            "inputs": [],
            "name": "uriSuffix",
            "outputs": [
                {
                    "internalType": "string",
                    "name": "",
                    "type": "string"
                }
            ],
            "stateMutability": "view",
            "type": "function"
        },
        {
            "inputs": [
                {
                    "internalType": "address",
                    "name": "_owner",
                    "type": "address"
                }
            ],
            "name": "walletOfOwner",
            "outputs": [
                {
                    "internalType": "uint256[]",
                    "name": "",
                    "type": "uint256[]"
                }
            ],
            "stateMutability": "view",
            "type": "function"
        },
        {
            "inputs": [],
            "name": "withdraw",
            "outputs": [],
            "stateMutability": "nonpayable",
            "type": "function"
        }
    ],
    "bytecode": "0x608060405260405180602001604052806000815250600890805190602001906200002b92919062000366565b506040518060400160405280600581526020017f2e6a736f6e000000000000000000000000000000000000000000000000000000815250600990805190602001906200007992919062000366565b50655af3107a4000600b55611388600c556028600d556000600e60006101000a81548160ff0219169083151502179055506000600e60016101000a81548160ff021916908315150217905550348015620000d257600080fd5b506040518060400160405280600c81526020017f736e65616b6572666163657300000000000000000000000000000000000000008152506040518060400160405280600281526020017f534600000000000000000000000000000000000000000000000000000000000081525081600090805190602001906200015792919062000366565b5080600190805190602001906200017092919062000366565b5050506200019362000187620001c360201b60201c565b620001cb60201b60201c565b620001bd60405180608001604052806041815260200162004716604191396200029160201b60201c565b620004fe565b600033905090565b6000600660009054906101000a900473ffffffffffffffffffffffffffffffffffffffff16905081600660006101000a81548173ffffffffffffffffffffffffffffffffffffffff021916908373ffffffffffffffffffffffffffffffffffffffff1602179055508173ffffffffffffffffffffffffffffffffffffffff168173ffffffffffffffffffffffffffffffffffffffff167f8be0079c531659141344cd1fd0a4f28419497f9722a3daafe3b4186f6b6457e060405160405180910390a35050565b620002a1620001c360201b60201c565b73ffffffffffffffffffffffffffffffffffffffff16620002c76200033c60201b60201c565b73ffffffffffffffffffffffffffffffffffffffff161462000320576040517f08c379a000000000000000000000000000000000000000000000000000000000815260040162000317906200043d565b60405180910390fd5b80600a90805190602001906200033892919062000366565b5050565b6000600660009054906101000a900473ffffffffffffffffffffffffffffffffffffffff16905090565b828054620003749062000470565b90600052602060002090601f016020900481019282620003985760008555620003e4565b82601f10620003b357805160ff1916838001178555620003e4565b82800160010185558215620003e4579182015b82811115620003e3578251825591602001919060010190620003c6565b5b509050620003f39190620003f7565b5090565b5b8082111562000412576000816000905550600101620003f8565b5090565b6000620004256020836200045f565b91506200043282620004d5565b602082019050919050565b60006020820190508181036000830152620004588162000416565b9050919050565b600082825260208201905092915050565b600060028204905060018216806200048957607f821691505b60208210811415620004a0576200049f620004a6565b5b50919050565b7f4e487b7100000000000000000000000000000000000000000000000000000000600052602260045260246000fd5b7f4f776e61626c653a2063616c6c6572206973206e6f7420746865206f776e6572600082015250565b614208806200050e6000396000f3fe60806040526004361061020f5760003560e01c80636352211e11610118578063a45ba8e7116100a0578063d5abeb011161006f578063d5abeb0114610768578063e0a8085314610793578063e985e9c5146107bc578063efbd73f4146107f9578063f2fde38b146108225761020f565b8063a45ba8e7146106ae578063b071401b146106d9578063b88d4fde14610702578063c87b56dd1461072b5761020f565b80638da5cb5b116100e75780638da5cb5b146105e857806394354fd01461061357806395d89b411461063e578063a0712d6814610669578063a22cb465146106855761020f565b80636352211e1461052e57806370a082311461056b578063715018a6146105a85780637ec4a659146105bf5761020f565b80633ccfd60b1161019b5780634fdd43cb1161016a5780634fdd43cb1461045957806351830227146104825780635503a0e8146104ad5780635c975abb146104d857806362b99ad4146105035761020f565b80633ccfd60b146103b357806342842e0e146103ca578063438b6300146103f357806344a0d68a146104305761020f565b806313faede6116101e257806313faede6146102e257806316ba10e01461030d57806316c38b3c1461033657806318160ddd1461035f57806323b872dd1461038a5761020f565b806301ffc9a71461021457806306fdde0314610251578063081812fc1461027c578063095ea7b3146102b9575b600080fd5b34801561022057600080fd5b5061023b60048036038101906102369190612e8d565b61084b565b6040516102489190613507565b60405180910390f35b34801561025d57600080fd5b5061026661092d565b6040516102739190613522565b60405180910390f35b34801561028857600080fd5b506102a3600480360381019061029e9190612f20565b6109bf565b6040516102b0919061347e565b60405180910390f35b3480156102c557600080fd5b506102e060048036038101906102db9190612e28565b610a44565b005b3480156102ee57600080fd5b506102f7610b5c565b60405161030491906137c4565b60405180910390f35b34801561031957600080fd5b50610334600480360381019061032f9190612edf565b610b62565b005b34801561034257600080fd5b5061035d60048036038101906103589190612e64565b610bf8565b005b34801561036b57600080fd5b50610374610c91565b60405161038191906137c4565b60405180910390f35b34801561039657600080fd5b506103b160048036038101906103ac9190612d22565b610ca2565b005b3480156103bf57600080fd5b506103c8610d02565b005b3480156103d657600080fd5b506103f160048036038101906103ec9190612d22565b610dfe565b005b3480156103ff57600080fd5b5061041a60048036038101906104159190612cbd565b610e1e565b60405161042791906134e5565b60405180910390f35b34801561043c57600080fd5b5061045760048036038101906104529190612f20565b610f75565b005b34801561046557600080fd5b50610480600480360381019061047b9190612edf565b610ffb565b005b34801561048e57600080fd5b50610497611091565b6040516104a49190613507565b60405180910390f35b3480156104b957600080fd5b506104c26110a4565b6040516104cf9190613522565b60405180910390f35b3480156104e457600080fd5b506104ed611132565b6040516104fa9190613507565b60405180910390f35b34801561050f57600080fd5b50610518611145565b6040516105259190613522565b60405180910390f35b34801561053a57600080fd5b5061055560048036038101906105509190612f20565b6111d3565b604051610562919061347e565b60405180910390f35b34801561057757600080fd5b50610592600480360381019061058d9190612cbd565b611285565b60405161059f91906137c4565b60405180910390f35b3480156105b457600080fd5b506105bd61133d565b005b3480156105cb57600080fd5b506105e660048036038101906105e19190612edf565b6113c5565b005b3480156105f457600080fd5b506105fd61145b565b60405161060a919061347e565b60405180910390f35b34801561061f57600080fd5b50610628611485565b60405161063591906137c4565b60405180910390f35b34801561064a57600080fd5b5061065361148b565b6040516106609190613522565b60405180910390f35b610683600480360381019061067e9190612f20565b61151d565b005b34801561069157600080fd5b506106ac60048036038101906106a79190612dec565b611676565b005b3480156106ba57600080fd5b506106c361168c565b6040516106d09190613522565b60405180910390f35b3480156106e557600080fd5b5061070060048036038101906106fb9190612f20565b61171a565b005b34801561070e57600080fd5b5061072960048036038101906107249190612d71565b6117a0565b005b34801561073757600080fd5b50610752600480360381019061074d9190612f20565b611802565b60405161075f9190613522565b60405180910390f35b34801561077457600080fd5b5061077d61195b565b60405161078a91906137c4565b60405180910390f35b34801561079f57600080fd5b506107ba60048036038101906107b59190612e64565b611961565b005b3480156107c857600080fd5b506107e360048036038101906107de9190612ce6565b6119fa565b6040516107f09190613507565b60405180910390f35b34801561080557600080fd5b50610820600480360381019061081b9190612f49565b611a8e565b005b34801561082e57600080fd5b5061084960048036038101906108449190612cbd565b611bc4565b005b60007f80ac58cd000000000000000000000000000000000000000000000000000000007bffffffffffffffffffffffffffffffffffffffffffffffffffffffff1916827bffffffffffffffffffffffffffffffffffffffffffffffffffffffff1916148061091657507f5b5e139f000000000000000000000000000000000000000000000000000000007bffffffffffffffffffffffffffffffffffffffffffffffffffffffff1916827bffffffffffffffffffffffffffffffffffffffffffffffffffffffff1916145b80610926575061092582611cbc565b5b9050919050565b60606000805461093c90613acd565b80601f016020809104026020016040519081016040528092919081815260200182805461096890613acd565b80156109b55780601f1061098a576101008083540402835291602001916109b5565b820191906000526020600020905b81548152906001019060200180831161099857829003601f168201915b5050505050905090565b60006109ca82611d26565b610a09576040517f08c379a0000000000000000000000000000000000000000000000000000000008152600401610a00906136c4565b60405180910390fd5b6004600083815260200190815260200160002060009054906101000a900473ffffffffffffffffffffffffffffffffffffffff169050919050565b6000610a4f826111d3565b90508073ffffffffffffffffffffffffffffffffffffffff168373ffffffffffffffffffffffffffffffffffffffff161415610ac0576040517f08c379a0000000000000000000000000000000000000000000000000000000008152600401610ab790613744565b60405180910390fd5b8073ffffffffffffffffffffffffffffffffffffffff16610adf611d92565b73ffffffffffffffffffffffffffffffffffffffff161480610b0e5750610b0d81610b08611d92565b6119fa565b5b610b4d576040517f08c379a0000000000000000000000000000000000000000000000000000000008152600401610b4490613644565b60405180910390fd5b610b578383611d9a565b505050565b600b5481565b610b6a611d92565b73ffffffffffffffffffffffffffffffffffffffff16610b8861145b565b73ffffffffffffffffffffffffffffffffffffffff1614610bde576040517f08c379a0000000000000000000000000000000000000000000000000000000008152600401610bd5906136e4565b60405180910390fd5b8060099080519060200190610bf4929190612ae1565b5050565b610c00611d92565b73ffffffffffffffffffffffffffffffffffffffff16610c1e61145b565b73ffffffffffffffffffffffffffffffffffffffff1614610c74576040517f08c379a0000000000000000000000000000000000000000000000000000000008152600401610c6b906136e4565b60405180910390fd5b80600e60006101000a81548160ff02191690831515021790555050565b6000610c9d6007611e53565b905090565b610cb3610cad611d92565b82611e61565b610cf2576040517f08c379a0000000000000000000000000000000000000000000000000000000008152600401610ce990613784565b60405180910390fd5b610cfd838383611f3f565b505050565b610d0a611d92565b73ffffffffffffffffffffffffffffffffffffffff16610d2861145b565b73ffffffffffffffffffffffffffffffffffffffff1614610d7e576040517f08c379a0000000000000000000000000000000000000000000000000000000008152600401610d75906136e4565b60405180910390fd5b6000610d8861145b565b73ffffffffffffffffffffffffffffffffffffffff1647604051610dab90613469565b60006040518083038185875af1925050503d8060008114610de8576040519150601f19603f3d011682016040523d82523d6000602084013e610ded565b606091505b5050905080610dfb57600080fd5b50565b610e19838383604051806020016040528060008152506117a0565b505050565b60606000610e2b83611285565b905060008167ffffffffffffffff811115610e6f577f4e487b7100000000000000000000000000000000000000000000000000000000600052604160045260246000fd5b604051908082528060200260200182016040528015610e9d5781602001602082028036833780820191505090505b50905060006001905060005b8381108015610eba5750600c548211155b15610f69576000610eca836111d3565b90508673ffffffffffffffffffffffffffffffffffffffff168173ffffffffffffffffffffffffffffffffffffffff161415610f555782848381518110610f3a577f4e487b7100000000000000000000000000000000000000000000000000000000600052603260045260246000fd5b6020026020010181815250508180610f5190613b30565b9250505b8280610f6090613b30565b93505050610ea9565b82945050505050919050565b610f7d611d92565b73ffffffffffffffffffffffffffffffffffffffff16610f9b61145b565b73ffffffffffffffffffffffffffffffffffffffff1614610ff1576040517f08c379a0000000000000000000000000000000000000000000000000000000008152600401610fe8906136e4565b60405180910390fd5b80600b8190555050565b611003611d92565b73ffffffffffffffffffffffffffffffffffffffff1661102161145b565b73ffffffffffffffffffffffffffffffffffffffff1614611077576040517f08c379a000000000000000000000000000000000000000000000000000000000815260040161106e906136e4565b60405180910390fd5b80600a908051906020019061108d929190612ae1565b5050565b600e60019054906101000a900460ff1681565b600980546110b190613acd565b80601f01602080910402602001604051908101604052809291908181526020018280546110dd90613acd565b801561112a5780601f106110ff5761010080835404028352916020019161112a565b820191906000526020600020905b81548152906001019060200180831161110d57829003601f168201915b505050505081565b600e60009054906101000a900460ff1681565b6008805461115290613acd565b80601f016020809104026020016040519081016040528092919081815260200182805461117e90613acd565b80156111cb5780601f106111a0576101008083540402835291602001916111cb565b820191906000526020600020905b8154815290600101906020018083116111ae57829003601f168201915b505050505081565b6000806002600084815260200190815260200160002060009054906101000a900473ffffffffffffffffffffffffffffffffffffffff169050600073ffffffffffffffffffffffffffffffffffffffff168173ffffffffffffffffffffffffffffffffffffffff16141561127c576040517f08c379a000000000000000000000000000000000000000000000000000000000815260040161127390613684565b60405180910390fd5b80915050919050565b60008073ffffffffffffffffffffffffffffffffffffffff168273ffffffffffffffffffffffffffffffffffffffff1614156112f6576040517f08c379a00000000000000000000000000000000000000000000000000000000081526004016112ed90613664565b60405180910390fd5b600360008373ffffffffffffffffffffffffffffffffffffffff1673ffffffffffffffffffffffffffffffffffffffff168152602001908152602001600020549050919050565b611345611d92565b73ffffffffffffffffffffffffffffffffffffffff1661136361145b565b73ffffffffffffffffffffffffffffffffffffffff16146113b9576040517f08c379a00000000000000000000000000000000000000000000000000000000081526004016113b0906136e4565b60405180910390fd5b6113c360006121a6565b565b6113cd611d92565b73ffffffffffffffffffffffffffffffffffffffff166113eb61145b565b73ffffffffffffffffffffffffffffffffffffffff1614611441576040517f08c379a0000000000000000000000000000000000000000000000000000000008152600401611438906136e4565b60405180910390fd5b8060089080519060200190611457929190612ae1565b5050565b6000600660009054906101000a900473ffffffffffffffffffffffffffffffffffffffff16905090565b600d5481565b60606001805461149a90613acd565b80601f01602080910402602001604051908101604052809291908181526020018280546114c690613acd565b80156115135780601f106114e857610100808354040283529160200191611513565b820191906000526020600020905b8154815290600101906020018083116114f657829003601f168201915b5050505050905090565b806000811180156115305750600d548111155b61156f576040517f08c379a0000000000000000000000000000000000000000000000000000000008152600401611566906135c4565b60405180910390fd5b600c548161157d6007611e53565b6115879190613902565b11156115c8576040517f08c379a00000000000000000000000000000000000000000000000000000000081526004016115bf90613764565b60405180910390fd5b600e60009054906101000a900460ff1615611618576040517f08c379a000000000000000000000000000000000000000000000000000000000815260040161160f90613704565b60405180910390fd5b81600b546116269190613989565b341015611668576040517f08c379a000000000000000000000000000000000000000000000000000000000815260040161165f906137a4565b60405180910390fd5b611672338361226c565b5050565b611688611681611d92565b83836122ac565b5050565b600a805461169990613acd565b80601f01602080910402602001604051908101604052809291908181526020018280546116c590613acd565b80156117125780601f106116e757610100808354040283529160200191611712565b820191906000526020600020905b8154815290600101906020018083116116f557829003601f168201915b505050505081565b611722611d92565b73ffffffffffffffffffffffffffffffffffffffff1661174061145b565b73ffffffffffffffffffffffffffffffffffffffff1614611796576040517f08c379a000000000000000000000000000000000000000000000000000000000815260040161178d906136e4565b60405180910390fd5b80600d8190555050565b6117b16117ab611d92565b83611e61565b6117f0576040517f08c379a00000000000000000000000000000000000000000000000000000000081526004016117e790613784565b60405180910390fd5b6117fc84848484612419565b50505050565b606061180d82611d26565b61184c576040517f08c379a000000000000000000000000000000000000000000000000000000000815260040161184390613724565b60405180910390fd5b60001515600e60019054906101000a900460ff16151514156118fa57600a805461187590613acd565b80601f01602080910402602001604051908101604052809291908181526020018280546118a190613acd565b80156118ee5780601f106118c3576101008083540402835291602001916118ee565b820191906000526020600020905b8154815290600101906020018083116118d157829003601f168201915b50505050509050611956565b6000611904612475565b905060008151116119245760405180602001604052806000815250611952565b8061192e84612507565b600960405160200161194293929190613438565b6040516020818303038152906040525b9150505b919050565b600c5481565b611969611d92565b73ffffffffffffffffffffffffffffffffffffffff1661198761145b565b73ffffffffffffffffffffffffffffffffffffffff16146119dd576040517f08c379a00000000000000000000000000000000000000000000000000000000081526004016119d4906136e4565b60405180910390fd5b80600e60016101000a81548160ff02191690831515021790555050565b6000600560008473ffffffffffffffffffffffffffffffffffffffff1673ffffffffffffffffffffffffffffffffffffffff16815260200190815260200160002060008373ffffffffffffffffffffffffffffffffffffffff1673ffffffffffffffffffffffffffffffffffffffff16815260200190815260200160002060009054906101000a900460ff16905092915050565b81600081118015611aa15750600d548111155b611ae0576040517f08c379a0000000000000000000000000000000000000000000000000000000008152600401611ad7906135c4565b60405180910390fd5b600c5481611aee6007611e53565b611af89190613902565b1115611b39576040517f08c379a0000000000000000000000000000000000000000000000000000000008152600401611b3090613764565b60405180910390fd5b611b41611d92565b73ffffffffffffffffffffffffffffffffffffffff16611b5f61145b565b73ffffffffffffffffffffffffffffffffffffffff1614611bb5576040517f08c379a0000000000000000000000000000000000000000000000000000000008152600401611bac906136e4565b60405180910390fd5b611bbf828461226c565b505050565b611bcc611d92565b73ffffffffffffffffffffffffffffffffffffffff16611bea61145b565b73ffffffffffffffffffffffffffffffffffffffff1614611c40576040517f08c379a0000000000000000000000000000000000000000000000000000000008152600401611c37906136e4565b60405180910390fd5b600073ffffffffffffffffffffffffffffffffffffffff168173ffffffffffffffffffffffffffffffffffffffff161415611cb0576040517f08c379a0000000000000000000000000000000000000000000000000000000008152600401611ca790613564565b60405180910390fd5b611cb9816121a6565b50565b60007f01ffc9a7000000000000000000000000000000000000000000000000000000007bffffffffffffffffffffffffffffffffffffffffffffffffffffffff1916827bffffffffffffffffffffffffffffffffffffffffffffffffffffffff1916149050919050565b60008073ffffffffffffffffffffffffffffffffffffffff166002600084815260200190815260200160002060009054906101000a900473ffffffffffffffffffffffffffffffffffffffff1673ffffffffffffffffffffffffffffffffffffffff1614159050919050565b600033905090565b816004600083815260200190815260200160002060006101000a81548173ffffffffffffffffffffffffffffffffffffffff021916908373ffffffffffffffffffffffffffffffffffffffff160217905550808273ffffffffffffffffffffffffffffffffffffffff16611e0d836111d3565b73ffffffffffffffffffffffffffffffffffffffff167f8c5be1e5ebec7d5bd14f71427d1e84f3dd0314c0f7b2291e5b200ac8c7c3b92560405160405180910390a45050565b600081600001549050919050565b6000611e6c82611d26565b611eab576040517f08c379a0000000000000000000000000000000000000000000000000000000008152600401611ea290613624565b60405180910390fd5b6000611eb6836111d3565b90508073ffffffffffffffffffffffffffffffffffffffff168473ffffffffffffffffffffffffffffffffffffffff161480611ef85750611ef781856119fa565b5b80611f3657508373ffffffffffffffffffffffffffffffffffffffff16611f1e846109bf565b73ffffffffffffffffffffffffffffffffffffffff16145b91505092915050565b8273ffffffffffffffffffffffffffffffffffffffff16611f5f826111d3565b73ffffffffffffffffffffffffffffffffffffffff1614611fb5576040517f08c379a0000000000000000000000000000000000000000000000000000000008152600401611fac90613584565b60405180910390fd5b600073ffffffffffffffffffffffffffffffffffffffff168273ffffffffffffffffffffffffffffffffffffffff161415612025576040517f08c379a000000000000000000000000000000000000000000000000000000000815260040161201c906135e4565b60405180910390fd5b6120308383836126b4565b61203b600082611d9a565b6001600360008573ffffffffffffffffffffffffffffffffffffffff1673ffffffffffffffffffffffffffffffffffffffff168152602001908152602001600020600082825461208b91906139e3565b925050819055506001600360008473ffffffffffffffffffffffffffffffffffffffff1673ffffffffffffffffffffffffffffffffffffffff16815260200190815260200160002060008282546120e29190613902565b92505081905550816002600083815260200190815260200160002060006101000a81548173ffffffffffffffffffffffffffffffffffffffff021916908373ffffffffffffffffffffffffffffffffffffffff160217905550808273ffffffffffffffffffffffffffffffffffffffff168473ffffffffffffffffffffffffffffffffffffffff167fddf252ad1be2c89b69c2b068fc378daa952ba7f163c4a11628f55a4df523b3ef60405160405180910390a46121a18383836126b9565b505050565b6000600660009054906101000a900473ffffffffffffffffffffffffffffffffffffffff16905081600660006101000a81548173ffffffffffffffffffffffffffffffffffffffff021916908373ffffffffffffffffffffffffffffffffffffffff1602179055508173ffffffffffffffffffffffffffffffffffffffff168173ffffffffffffffffffffffffffffffffffffffff167f8be0079c531659141344cd1fd0a4f28419497f9722a3daafe3b4186f6b6457e060405160405180910390a35050565b60005b818110156122a75761228160076126be565b6122948361228f6007611e53565b6126d4565b808061229f90613b30565b91505061226f565b505050565b8173ffffffffffffffffffffffffffffffffffffffff168373ffffffffffffffffffffffffffffffffffffffff16141561231b576040517f08c379a000000000000000000000000000000000000000000000000000000000815260040161231290613604565b60405180910390fd5b80600560008573ffffffffffffffffffffffffffffffffffffffff1673ffffffffffffffffffffffffffffffffffffffff16815260200190815260200160002060008473ffffffffffffffffffffffffffffffffffffffff1673ffffffffffffffffffffffffffffffffffffffff16815260200190815260200160002060006101000a81548160ff0219169083151502179055508173ffffffffffffffffffffffffffffffffffffffff168373ffffffffffffffffffffffffffffffffffffffff167f17307eab39ab6107e8899845ad3d59bd9653f200f220920489ca2b5937696c318360405161240c9190613507565b60405180910390a3505050565b612424848484611f3f565b612430848484846126f2565b61246f576040517f08c379a000000000000000000000000000000000000000000000000000000000815260040161246690613544565b60405180910390fd5b50505050565b60606008805461248490613acd565b80601f01602080910402602001604051908101604052809291908181526020018280546124b090613acd565b80156124fd5780601f106124d2576101008083540402835291602001916124fd565b820191906000526020600020905b8154815290600101906020018083116124e057829003601f168201915b5050505050905090565b6060600082141561254f576040518060400160405280600181526020017f300000000000000000000000000000000000000000000000000000000000000081525090506126af565b600082905060005b6000821461258157808061256a90613b30565b915050600a8261257a9190613958565b9150612557565b60008167ffffffffffffffff8111156125c3577f4e487b7100000000000000000000000000000000000000000000000000000000600052604160045260246000fd5b6040519080825280601f01601f1916602001820160405280156125f55781602001600182028036833780820191505090505b5090505b600085146126a85760018261260e91906139e3565b9150600a8561261d9190613b79565b60306126299190613902565b60f81b818381518110612665577f4e487b7100000000000000000000000000000000000000000000000000000000600052603260045260246000fd5b60200101907effffffffffffffffffffffffffffffffffffffffffffffffffffffffffffff1916908160001a905350600a856126a19190613958565b94506125f9565b8093505050505b919050565b505050565b505050565b6001816000016000828254019250508190555050565b6126ee828260405180602001604052806000815250612889565b5050565b60006127138473ffffffffffffffffffffffffffffffffffffffff166128e4565b1561287c578373ffffffffffffffffffffffffffffffffffffffff1663150b7a0261273c611d92565b8786866040518563ffffffff1660e01b815260040161275e9493929190613499565b602060405180830381600087803b15801561277857600080fd5b505af19250505080156127a957506040513d601f19601f820116820180604052508101906127a69190612eb6565b60015b61282c573d80600081146127d9576040519150601f19603f3d011682016040523d82523d6000602084013e6127de565b606091505b50600081511415612824576040517f08c379a000000000000000000000000000000000000000000000000000000000815260040161281b90613544565b60405180910390fd5b805181602001fd5b63150b7a0260e01b7bffffffffffffffffffffffffffffffffffffffffffffffffffffffff1916817bffffffffffffffffffffffffffffffffffffffffffffffffffffffff191614915050612881565b600190505b949350505050565b6128938383612907565b6128a060008484846126f2565b6128df576040517f08c379a00000000000000000000000000000000000000000000000000000000081526004016128d690613544565b60405180910390fd5b505050565b6000808273ffffffffffffffffffffffffffffffffffffffff163b119050919050565b600073ffffffffffffffffffffffffffffffffffffffff168273ffffffffffffffffffffffffffffffffffffffff161415612977576040517f08c379a000000000000000000000000000000000000000000000000000000000815260040161296e906136a4565b60405180910390fd5b61298081611d26565b156129c0576040517f08c379a00000000000000000000000000000000000000000000000000000000081526004016129b7906135a4565b60405180910390fd5b6129cc600083836126b4565b6001600360008473ffffffffffffffffffffffffffffffffffffffff1673ffffffffffffffffffffffffffffffffffffffff1681526020019081526020016000206000828254612a1c9190613902565b92505081905550816002600083815260200190815260200160002060006101000a81548173ffffffffffffffffffffffffffffffffffffffff021916908373ffffffffffffffffffffffffffffffffffffffff160217905550808273ffffffffffffffffffffffffffffffffffffffff16600073ffffffffffffffffffffffffffffffffffffffff167fddf252ad1be2c89b69c2b068fc378daa952ba7f163c4a11628f55a4df523b3ef60405160405180910390a4612add600083836126b9565b5050565b828054612aed90613acd565b90600052602060002090601f016020900481019282612b0f5760008555612b56565b82601f10612b2857805160ff1916838001178555612b56565b82800160010185558215612b56579182015b82811115612b55578251825591602001919060010190612b3a565b5b509050612b639190612b67565b5090565b5b80821115612b80576000816000905550600101612b68565b5090565b6000612b97612b9284613804565b6137df565b905082815260208101848484011115612baf57600080fd5b612bba848285613a8b565b509392505050565b6000612bd5612bd084613835565b6137df565b905082815260208101848484011115612bed57600080fd5b612bf8848285613a8b565b509392505050565b600081359050612c0f81614176565b92915050565b600081359050612c248161418d565b92915050565b600081359050612c39816141a4565b92915050565b600081519050612c4e816141a4565b92915050565b600082601f830112612c6557600080fd5b8135612c75848260208601612b84565b91505092915050565b600082601f830112612c8f57600080fd5b8135612c9f848260208601612bc2565b91505092915050565b600081359050612cb7816141bb565b92915050565b600060208284031215612ccf57600080fd5b6000612cdd84828501612c00565b91505092915050565b60008060408385031215612cf957600080fd5b6000612d0785828601612c00565b9250506020612d1885828601612c00565b9150509250929050565b600080600060608486031215612d3757600080fd5b6000612d4586828701612c00565b9350506020612d5686828701612c00565b9250506040612d6786828701612ca8565b9150509250925092565b60008060008060808587031215612d8757600080fd5b6000612d9587828801612c00565b9450506020612da687828801612c00565b9350506040612db787828801612ca8565b925050606085013567ffffffffffffffff811115612dd457600080fd5b612de087828801612c54565b91505092959194509250565b60008060408385031215612dff57600080fd5b6000612e0d85828601612c00565b9250506020612e1e85828601612c15565b9150509250929050565b60008060408385031215612e3b57600080fd5b6000612e4985828601612c00565b9250506020612e5a85828601612ca8565b9150509250929050565b600060208284031215612e7657600080fd5b6000612e8484828501612c15565b91505092915050565b600060208284031215612e9f57600080fd5b6000612ead84828501612c2a565b91505092915050565b600060208284031215612ec857600080fd5b6000612ed684828501612c3f565b91505092915050565b600060208284031215612ef157600080fd5b600082013567ffffffffffffffff811115612f0b57600080fd5b612f1784828501612c7e565b91505092915050565b600060208284031215612f3257600080fd5b6000612f4084828501612ca8565b91505092915050565b60008060408385031215612f5c57600080fd5b6000612f6a85828601612ca8565b9250506020612f7b85828601612c00565b9150509250929050565b6000612f91838361341a565b60208301905092915050565b612fa681613a17565b82525050565b6000612fb78261388b565b612fc181856138b9565b9350612fcc83613866565b8060005b83811015612ffd578151612fe48882612f85565b9750612fef836138ac565b925050600181019050612fd0565b5085935050505092915050565b61301381613a29565b82525050565b600061302482613896565b61302e81856138ca565b935061303e818560208601613a9a565b61304781613c66565b840191505092915050565b600061305d826138a1565b61306781856138e6565b9350613077818560208601613a9a565b61308081613c66565b840191505092915050565b6000613096826138a1565b6130a081856138f7565b93506130b0818560208601613a9a565b80840191505092915050565b600081546130c981613acd565b6130d381866138f7565b945060018216600081146130ee57600181146130ff57613132565b60ff19831686528186019350613132565b61310885613876565b60005b8381101561312a5781548189015260018201915060208101905061310b565b838801955050505b50505092915050565b60006131486032836138e6565b915061315382613c77565b604082019050919050565b600061316b6026836138e6565b915061317682613cc6565b604082019050919050565b600061318e6025836138e6565b915061319982613d15565b604082019050919050565b60006131b1601c836138e6565b91506131bc82613d64565b602082019050919050565b60006131d46014836138e6565b91506131df82613d8d565b602082019050919050565b60006131f76024836138e6565b915061320282613db6565b604082019050919050565b600061321a6019836138e6565b915061322582613e05565b602082019050919050565b600061323d602c836138e6565b915061324882613e2e565b604082019050919050565b60006132606038836138e6565b915061326b82613e7d565b604082019050919050565b6000613283602a836138e6565b915061328e82613ecc565b604082019050919050565b60006132a66029836138e6565b91506132b182613f1b565b604082019050919050565b60006132c96020836138e6565b91506132d482613f6a565b602082019050919050565b60006132ec602c836138e6565b91506132f782613f93565b604082019050919050565b600061330f6020836138e6565b915061331a82613fe2565b602082019050919050565b60006133326017836138e6565b915061333d8261400b565b602082019050919050565b6000613355602f836138e6565b915061336082614034565b604082019050919050565b60006133786021836138e6565b915061338382614083565b604082019050919050565b600061339b6000836138db565b91506133a6826140d2565b600082019050919050565b60006133be6014836138e6565b91506133c9826140d5565b602082019050919050565b60006133e16031836138e6565b91506133ec826140fe565b604082019050919050565b60006134046013836138e6565b915061340f8261414d565b602082019050919050565b61342381613a81565b82525050565b61343281613a81565b82525050565b6000613444828661308b565b9150613450828561308b565b915061345c82846130bc565b9150819050949350505050565b60006134748261338e565b9150819050919050565b60006020820190506134936000830184612f9d565b92915050565b60006080820190506134ae6000830187612f9d565b6134bb6020830186612f9d565b6134c86040830185613429565b81810360608301526134da8184613019565b905095945050505050565b600060208201905081810360008301526134ff8184612fac565b905092915050565b600060208201905061351c600083018461300a565b92915050565b6000602082019050818103600083015261353c8184613052565b905092915050565b6000602082019050818103600083015261355d8161313b565b9050919050565b6000602082019050818103600083015261357d8161315e565b9050919050565b6000602082019050818103600083015261359d81613181565b9050919050565b600060208201905081810360008301526135bd816131a4565b9050919050565b600060208201905081810360008301526135dd816131c7565b9050919050565b600060208201905081810360008301526135fd816131ea565b9050919050565b6000602082019050818103600083015261361d8161320d565b9050919050565b6000602082019050818103600083015261363d81613230565b9050919050565b6000602082019050818103600083015261365d81613253565b9050919050565b6000602082019050818103600083015261367d81613276565b9050919050565b6000602082019050818103600083015261369d81613299565b9050919050565b600060208201905081810360008301526136bd816132bc565b9050919050565b600060208201905081810360008301526136dd816132df565b9050919050565b600060208201905081810360008301526136fd81613302565b9050919050565b6000602082019050818103600083015261371d81613325565b9050919050565b6000602082019050818103600083015261373d81613348565b9050919050565b6000602082019050818103600083015261375d8161336b565b9050919050565b6000602082019050818103600083015261377d816133b1565b9050919050565b6000602082019050818103600083015261379d816133d4565b9050919050565b600060208201905081810360008301526137bd816133f7565b9050919050565b60006020820190506137d96000830184613429565b92915050565b60006137e96137fa565b90506137f58282613aff565b919050565b6000604051905090565b600067ffffffffffffffff82111561381f5761381e613c37565b5b61382882613c66565b9050602081019050919050565b600067ffffffffffffffff8211156138505761384f613c37565b5b61385982613c66565b9050602081019050919050565b6000819050602082019050919050565b60008190508160005260206000209050919050565b600081519050919050565b600081519050919050565b600081519050919050565b6000602082019050919050565b600082825260208201905092915050565b600082825260208201905092915050565b600081905092915050565b600082825260208201905092915050565b600081905092915050565b600061390d82613a81565b915061391883613a81565b9250827fffffffffffffffffffffffffffffffffffffffffffffffffffffffffffffffff0382111561394d5761394c613baa565b5b828201905092915050565b600061396382613a81565b915061396e83613a81565b92508261397e5761397d613bd9565b5b828204905092915050565b600061399482613a81565b915061399f83613a81565b9250817fffffffffffffffffffffffffffffffffffffffffffffffffffffffffffffffff04831182151516156139d8576139d7613baa565b5b828202905092915050565b60006139ee82613a81565b91506139f983613a81565b925082821015613a0c57613a0b613baa565b5b828203905092915050565b6000613a2282613a61565b9050919050565b60008115159050919050565b60007fffffffff0000000000000000000000000000000000000000000000000000000082169050919050565b600073ffffffffffffffffffffffffffffffffffffffff82169050919050565b6000819050919050565b82818337600083830152505050565b60005b83811015613ab8578082015181840152602081019050613a9d565b83811115613ac7576000848401525b50505050565b60006002820490506001821680613ae557607f821691505b60208210811415613af957613af8613c08565b5b50919050565b613b0882613c66565b810181811067ffffffffffffffff82111715613b2757613b26613c37565b5b80604052505050565b6000613b3b82613a81565b91507fffffffffffffffffffffffffffffffffffffffffffffffffffffffffffffffff821415613b6e57613b6d613baa565b5b600182019050919050565b6000613b8482613a81565b9150613b8f83613a81565b925082613b9f57613b9e613bd9565b5b828206905092915050565b7f4e487b7100000000000000000000000000000000000000000000000000000000600052601160045260246000fd5b7f4e487b7100000000000000000000000000000000000000000000000000000000600052601260045260246000fd5b7f4e487b7100000000000000000000000000000000000000000000000000000000600052602260045260246000fd5b7f4e487b7100000000000000000000000000000000000000000000000000000000600052604160045260246000fd5b6000601f19601f8301169050919050565b7f4552433732313a207472616e7366657220746f206e6f6e20455243373231526560008201527f63656976657220696d706c656d656e7465720000000000000000000000000000602082015250565b7f4f776e61626c653a206e6577206f776e657220697320746865207a65726f206160008201527f6464726573730000000000000000000000000000000000000000000000000000602082015250565b7f4552433732313a207472616e736665722066726f6d20696e636f72726563742060008201527f6f776e6572000000000000000000000000000000000000000000000000000000602082015250565b7f4552433732313a20746f6b656e20616c7265616479206d696e74656400000000600082015250565b7f496e76616c6964206d696e7420616d6f756e7421000000000000000000000000600082015250565b7f4552433732313a207472616e7366657220746f20746865207a65726f2061646460008201527f7265737300000000000000000000000000000000000000000000000000000000602082015250565b7f4552433732313a20617070726f766520746f2063616c6c657200000000000000600082015250565b7f4552433732313a206f70657261746f7220717565727920666f72206e6f6e657860008201527f697374656e7420746f6b656e0000000000000000000000000000000000000000602082015250565b7f4552433732313a20617070726f76652063616c6c6572206973206e6f74206f7760008201527f6e6572206e6f7220617070726f76656420666f7220616c6c0000000000000000602082015250565b7f4552433732313a2062616c616e636520717565727920666f7220746865207a6560008201527f726f206164647265737300000000000000000000000000000000000000000000602082015250565b7f4552433732313a206f776e657220717565727920666f72206e6f6e657869737460008201527f656e7420746f6b656e0000000000000000000000000000000000000000000000602082015250565b7f4552433732313a206d696e7420746f20746865207a65726f2061646472657373600082015250565b7f4552433732313a20617070726f76656420717565727920666f72206e6f6e657860008201527f697374656e7420746f6b656e0000000000000000000000000000000000000000602082015250565b7f4f776e61626c653a2063616c6c6572206973206e6f7420746865206f776e6572600082015250565b7f54686520636f6e74726163742069732070617573656421000000000000000000600082015250565b7f4552433732314d657461646174613a2055524920717565727920666f72206e6f60008201527f6e6578697374656e7420746f6b656e0000000000000000000000000000000000602082015250565b7f4552433732313a20617070726f76616c20746f2063757272656e74206f776e6560008201527f7200000000000000000000000000000000000000000000000000000000000000602082015250565b50565b7f4d617820737570706c7920657863656564656421000000000000000000000000600082015250565b7f4552433732313a207472616e736665722063616c6c6572206973206e6f74206f60008201527f776e6572206e6f7220617070726f766564000000000000000000000000000000602082015250565b7f496e73756666696369656e742066756e64732100000000000000000000000000600082015250565b61417f81613a17565b811461418a57600080fd5b50565b61419681613a29565b81146141a157600080fd5b50565b6141ad81613a35565b81146141b857600080fd5b50565b6141c481613a81565b81146141cf57600080fd5b5056fea26469706673582212205f80440268cb72e5b491a1819290f93f4831f2aca8b6aeebc0d5eb61c26b6c2064736f6c63430008040033697066733a2f2f516d5a52365564487177624a4e5776536a73315238654e397634683454457534776271706e5844623443724c4e782f68696464656e2e6a736f6e",
    "linkReferences": {},
    "deployedLinkReferences": {}
}